:100000000C9434000C9451000C9451000C94510049
:100010000C9451000C9451000C9451000C94D40099
:100020000C9451000C9451000C9451000C9451000C
:100030000C9451000C9451000C9451000C945100FC
:100040000C9451000C9451000C946E010C94990185
:100050000C9451000C9451000C9451000C945100DC
:100060000C9451000C94510011241FBECFEFD8E026
:10007000DEBFCDBF11E0A0E0B1E0EEEAF9E002C0E2
:1000800005900D92A434B107D9F721E0A4E4B1E0C2
:1000900001C01D92AC38B207E1F70E946C000C94CD
:1000A000D5040C9400004A990DC08FE99FE0019798
:1000B000F1F700C0000089B182FB882780F991E048
:1000C0008927089580E0089580914501813011F4D9
:1000D0005B9A08955B980895CF93DF93CDB7DEB711
:1000E000C456D1090FB6F894DEBF0FBECDBF539AE8
:1000F00052985A9A82E08093700099EF9093B300DF
:100100008093B00084E08093B10087E690E00E9485
:10011000C301789484E0C82E81E0D82ECE010196E8
:100120007C010E9453008093440105E411E026E421
:1001300031E040E051E062E071E084E491E00E944F
:10014000F8000E946400809146011F928F93809175
:1001500045011F928F93809101018F93809100013F
:100160008F93809103018F93809102018F938091EF
:1001700044011F928F93DF92CF92FF92EF920E94E1
:10018000FD01C7010E94F10180E491E00E94F101AC
:100190008FE99FE00197F1F700C000000FB6F894D7
:1001A000DEBF0FBECDBFBDCF1F920F920FB60F9215
:1001B00011248F939F9380910201909103010097E6
:1001C00029F001979093030180930201809100012F
:1001D00090910101009729F001979093010180937C
:1001E00000019F918F910F900FBE0F901F90189557
:1001F000EF92FF920F931F93CF93DF937C01DB016C
:10020000F9019081923089F188F49923A9F0913015
:1002100009F05DC088EE93E08D939C9388E893E1AC
:10022000DA018D939C93E70188811BC0943061F1C2
:10023000C8F1963059F04BC088EE93E08D939C93B3
:1002400088E893E1DA018D939C933DC088EE93E0BA
:100250008D939C93DA018D919C91892BA1F1D7010B
:100260008C918130A1F582E031C088E893E1EA0108
:10027000998388832D913C91D7018C91232B79F020
:10028000811125C083E022C088E893E1EA019983C7
:1002900088832D913C91D7018C91232B69F4811196
:1002A00016C00FC08D919C91892B59F0E701888170
:1002B000813069F484E00AC0811109C081E0E8015D
:1002C000888386E003C0E801188281E08083DF91A3
:1002D000CF911F910F91FF90EF9008951F920F9271
:1002E0000FB60F9211242F938F939F93EF93FF9349
:1002F0008091C0009091C6008871E0914901EF5F44
:10030000EF7120914801E21739F0E0934901F0E0E4
:10031000E45BFE4F908301C082E080934701FF9130
:10032000EF919F918F912F910F900FBE0F901F9083
:1003300018951F920F920FB60F9211248F939F93CF
:10034000EF93FF9390914B0180914A01981769F0C8
:10035000E0914A01EF5FEF71E0934A01F0E0E45968
:10036000FE4F80818093C60005C08091C1008F7DC3
:100370008093C100FF91EF919F918F910F900FBEDD
:100380000F901F90189510924B0110924A011092F5
:1003900049011092480197FF04C022E02093C00059
:1003A0009F779093C5008093C40088E98093C10033
:1003B00086E08093C200089590914B019F5F9F71EA
:1003C00020914A019217E1F3E92FF0E0E459FE4F42
:1003D000808390934B018091C10080628093C10023
:1003E0000895CF93DF93EC018991882319F00E943F
:1003F000DC01FACFDF91CF910895AEE0B0E0E3E009
:10040000F2E00C94AC040D891E8986E08C831A837B
:1004100009838FEF9FE79E838D83AE01475E5F4F19
:100420006F89788DCE0101960E9420022F81388538
:10043000F801E20FF31F10822E96E4E00C94C8043A
:10044000ACE0B0E0E6E2F2E00C949E047C016B01CB
:100450008A01FC0117821682838181FFBDC1CE0112
:1004600001964C01F7019381F60193FD859193FF6D
:1004700081916F01882309F4ABC1853239F493FD72
:10048000859193FF81916F01853229F4B70190E046
:100490000E940804E7CF512C312C20E02032A0F438
:1004A0008B3269F030F4803259F0833269F4206184
:1004B0002CC08D3239F0803339F4216026C022609F
:1004C000246023C0286021C027FD27C030ED380FED
:1004D0003A3078F426FF06C0FAE05F9E300D112412
:1004E000532E13C08AE0389E300D1124332E206223
:1004F0000CC08E3221F426FD6BC1206406C08C3600
:1005000011F4206802C0883641F4F60193FD85910C
:1005100093FF81916F018111C1CF982F9F7D9554D9
:10052000933028F40C5F1F4FFFE3F9830DC083362F
:1005300031F0833771F0833509F05BC022C0F801D8
:10054000808189830E5F1F4F44244394512C5401B2
:1005500015C03801F2E06F0E711CF801A080B18067
:1005600026FF03C0652D70E002C06FEF7FEFC5016D
:100570002C870E94FD032C0183012C852F77222ECE
:1005800017C03801F2E06F0E711CF801A080B18035
:1005900026FF03C0652D70E002C06FEF7FEFC5013D
:1005A0002C870E94F2032C012C852068222E8301C7
:1005B00023FC1BC0832D90E048165906B0F4B70108
:1005C00080E290E00E9408043A94F4CFF50127FC01
:1005D000859127FE81915F01B70190E00E94080498
:1005E00031103A94F1E04F1A51084114510471F757
:1005F000E5C0843611F0893639F5F80127FF07C0C8
:1006000060817181828193810C5F1F4F08C060817E
:100610007181072E000C880B990B0E5F1F4F2F76F0
:10062000722E97FF09C090958095709561957F4FC8
:100630008F4F9F4F2068722E2AE030E0A4010E9465
:100640004004A82EA81844C0853729F42F7EB22E66
:100650002AE030E025C0F22FF97FBF2E8F36C1F09F
:1006600018F4883579F0B4C0803719F0883721F054
:10067000AFC02F2F2061B22EB4FE0DC08B2D846031
:10068000B82E09C024FF0AC09F2F9660B92E06C05D
:1006900028E030E005C020E130E002C020E132E097
:1006A000F801B7FE07C060817181828193810C5F80
:1006B0001F4F06C06081718180E090E00E5F1F4F88
:1006C000A4010E944004A82EA818FB2DFF777F2EBE
:1006D00076FE0BC0372D3E7FA51450F474FE0AC081
:1006E00072FC08C0372D3E7E05C0BA2C372D03C0E2
:1006F000BA2C01C0B52C34FF0DC0FE01EA0DF11D6E
:100700008081803311F4397E09C032FF06C0B39472
:10071000B39404C0832F867809F0B39433FD13C0DB
:1007200030FF06C05A2CB31418F4530C5B18B32CCA
:10073000B31468F4B70180E290E03C870E9408049B
:10074000B3943C85F5CFB31410F43B1801C0312CA1
:1007500034FF12C0B70180E390E03C870E94080498
:100760003C8532FF17C031FD03C088E790E002C02E
:1007700088E590E0B7010CC0832F867859F031FFEF
:1007800002C08BE201C080E237FD8DE2B70190E04C
:100790000E940804A51438F4B70180E390E00E9499
:1007A00008045A94F7CFAA94F401EA0DF11D808150
:1007B000B70190E00E940804A110F5CF332009F49E
:1007C00051CEB70180E290E00E9408043A94F6CF3F
:1007D000F7018681978102C08FEF9FEF2C96E2E1AF
:1007E0000C94BA04FC010590615070400110D8F7D8
:1007F000809590958E0F9F1F0895FC016150704069
:1008000001900110D8F7809590958E0F9F1F089545
:100810000F931F93CF93DF93FB01238121FD03C02F
:100820008FEF9FEF28C022FF16C046815781248199
:1008300035814217530744F4A081B1819D012F5F98
:100840003F4F318320838C93268137812F5F3F4F29
:100850003783268310C0EB01092F182F0084F18500
:10086000E02D0995892BE1F68E819F8101969F836A
:100870008E83812F902FDF91CF911F910F9108953B
:10088000FA01AA27283051F1203181F1E8946F93C1
:100890006E7F6E5F7F4F8F4F9F4FAF4FB1E03ED067
:1008A000B4E03CD0670F781F891F9A1FA11D680F05
:1008B000791F8A1F911DA11D6A0F711D811D911D38
:1008C000A11D20D009F468943F912AE0269F1124AD
:1008D0003019305D3193DEF6CF010895462F477011
:1008E000405D4193B3E00FD0C9F7F6CF462F4F706C
:1008F000405D4A3318F0495D31FD4052419302D0CA
:10090000A9F7EACFB4E0A69597958795779567956F
:10091000BA95C9F700976105710508959B01AC016F
:100920000A2E06945795479537952795BA95C9F796
:10093000620F731F841F951FA01D08952F923F9271
:100940004F925F926F927F928F929F92AF92BF92DF
:10095000CF92DF92EF92FF920F931F93CF93DF938B
:10096000CDB7DEB7CA1BDB0B0FB6F894DEBF0FBEE8
:10097000CDBF09942A88398848885F846E847D8435
:100980008C849B84AA84B984C884DF80EE80FD8037
:100990000C811B81AA81B981CE0FD11D0FB6F894AD
:0E09A000DEBF0FBECDBFED010895F894FFCF6E
:1009AE008813E8036275746E756D202564207C20B3
:1009BE0074696D655F7072657373202564207C2089
:1009CE0074696D65206F666620253264207C206C0C
:1009DE00616D702025642073746174652025640038
:0409EE000D0A0000EE
:00000001FF
